:020000040800F2
:10000000D8A20020310200081D3F0008DB3600089E
:10001000193F0008A9080008FD3F00080000000083
:10002000000000000000000000000000990100082E
:100030004F0B000800000000DD01000821890008C6
:100040004B0200084B0200084B0200084B0200085C
:100050004B0200084B0200084B0200084B0200084C
:100060004B0200084B0200084B0200084B0200083C
:100070004B0200084B0200084B0200084B0200082C
:100080004B0200084B0200084B0200084B0200081C
:10009000AD0800084B0200084B0200084B020008A4
:1000A0004B020008C58900084B0200084B020008FB
:1000B0004B0200084B0200084B0200084B020008EC
:1000C0004B0200084B0200084B0200084B020008DC
:1000D0004B0200084B0200084B0200084B020008CC
:1000E0004B0200084B0200084B0200084B020008BC
:1000F0004B0200084B0200084B0200084B020008AC
:100100004B0200084B0200084B0200084B0200089B
:100110004B0200084B020008D58900084B0200087A
:100120004B0200084B0200084B0200084B0200087B
:100130004B02000800000000000000004B02000815
:100140004B0200084B0200084B0200084B0200085B
:100150004B0200084B0200084B0200084B0200084B
:100160004B0200084B0200084B0200084B0200083B
:100170004B020008E53F00080000000000000000FE
:100180004B020008DFF80CD000F0E2FA004800470C
:10019000D9C90008D8A20020224B19680868B0E825
:1001A000F00F80F30988BFF36F8F4FF0000080F3EA
:1001B00011884EF00D0E70470000000006480068E0
:1001C000006880F3088862B661B6BFF34F8FBFF353
:1001D0006F8F00DF00BF00BF08ED00E0EFF3098084
:1001E000BFF36F8F0F4B1A6820E9F00F106008B54E
:1001F0004FF0500080F31188BFF34F8FBFF36F8F24
:1002000011F0F4FF4FF0000080F31188BDE80840C2
:1002100019680868B0E8F00F80F30988BFF36F8FA2
:10022000704700BF00C00120EFF305807047000059
:100230000648804706480047FEE7FEE7FEE7FEE780
:10024000FEE7FEE7FEE7FEE7FEE7FEE7F53F000814
:10025000850100082DE9F05F0546002092469B4687
:1002600088460646814640241BE0284641464746CC
:10027000224600F0A5F853465A46C01A914110D3C1
:1002800011461846224600F016F82D1A67EB0108B1
:100290004F4622460120002100F00DF817EB00091F
:1002A0004E41201EA4F10104DFDC484631462A46B7
:1002B0004346BDE8F09F202A04DB203A00FA02F111
:1002C000002070479140C2F1200320FA03F3194344
:1002D0009040704740EA01039B0703D009E008C93A
:1002E000121F08C0042AFAD203E011F8013B00F8FB
:1002F000013B521EF9D27047D2B201E000F8012B47
:10030000491EFBD270470022F6E710B513460A4695
:1003100004461946FFF7F0FF204610BD10B5002235
:1003200000E0521C835C8C5CA34201D1002BF8D10D
:10033000D8B2E1B2401A10BD30B5044600200346E1
:1003400000E05B1C934203D2E05CCD5C401BF8D024
:1003500030BD10B50346002002E0401C521E5B1C5D
:10036000A2B11C78002CF8D104E0401C491C03F811
:10037000014B521E012A03D90C78002CF5D100E064
:1003800022B100221A7001E0401C491C0A78002AA0
:10039000FAD110BD30B50B460146002020220124C1
:1003A00009E021FA02F59D4205D303FA02F5491B43
:1003B00004FA02F52844151EA2F10102F1DC30BD59
:1003C000202A04DB203A21FA02F00021704721FAAA
:1003D00002F3D040C2F12002914008431946704711
:1003E0002DE9FE4F804681EA0300C00F0C460090C5
:1003F00021F0004123F00045B8EB0200A94105D2ED
:100400004046214690461C460B46024623F00040DB
:10041000104347D0270DC7F30A00C3F30A510290D7
:10042000401A019040286BDAC3F3130040F4801B9C
:100430000098924620B10023D2EB030A63EB0B0B2A
:1004400001985946C0F140025046FFF734FF064676
:100450000D4650465946019A00F08CF910EB080001
:100460006141002487EA115284EAE7731A4340D0BD
:10047000009A62B3019A012A4FEA075215DC001B69
:1004800061EB02014FF0004202EA0752CDE900425F
:10049000001C41F5801132462B4600F08CF903B068
:1004A000BDE8F08F40462146F9E7001B61EB0201F1
:1004B000001C41F5801300185B412018A2F50017BD
:1004C00047EB030140EAD570B6196D4111E06D08A4
:1004D0004FEA360645EAC0754FEA0752001B61EB4A
:1004E0000201001C41F5801149084FEA3000001953
:1004F000514132462B4603B0BDE8F04F00F04CB9F5
:100500000098012240000023D0EB020263EBE0736D
:10051000009821464FEAE074B8EB000061EB04015B
:10052000E9E783F000435BE781F0004158E72DE9FC
:10053000FE4F81EA030404F0004421F000410094DE
:100540004FF0000B23F0004350EA01045ED052EA62
:1005500003045BD0C3F30A54C1F30A552C44A4F23C
:10056000F3340194A0FB0254C1F3130141F4801150
:10057000C3F3130343F4801301FB024400FB034E57
:10058000840A970A44EA815447EA8357A4FB076820
:1005900002958D0A05FB07854FEA932C04FB0C544A
:1005A0002705029D4FEA065847EA1637B5EB0805BE
:1005B0006EEB070C870E920E47EA811742EA831210
:1005C000A7FB0201B6EB0B0164EB00042B0D43EA21
:1005D0000C335E1844EB1C50DA465146E7FB02012F
:1005E000C5F313044FEA0B3343EA14534FEA0432C2
:1005F000019C43EA0603A4F10C040294009CCDE99B
:1006000000B400F0D8F803B0BDE8F08F0020014638
:10061000F9E72DE9F04D81EA030404F0004B21F0E5
:10062000004514464FF0000A23F0004150EA05024D
:1006300020D054EA01021DD0C5F30A570246C5F383
:100640001303C1F31300C1F30A5640F4801543F4B9
:100650008013A7EB0608101BD64608F2FD3873EB93
:10066000050002D308F1010801E092185B41B8F1DE
:10067000000F03DA00200146BDE8F08D00204FF4A2
:100680008011064684460EE0171B73EB050705D361
:10069000121B63EB050306434CEA010C49084FEAC1
:1006A000300092185B4150EA0107EDD152EA030095
:1006B00012D082EA040083EA0501084305D0101B2A
:1006C000AB4106D20122002306E000224FF0004396
:1006D00002E06FF0010253101AEB06004CEB0851D8
:1006E00010EB0A0041EB0B01BDE8F04D00F054B8EF
:1006F000C1F30A52C1F3130140F2FF3341F48011F8
:100700009A4202DA00200146704740F233439A428F
:10071000A2F2334202DC5242FFF752BEFFF7CBBDDA
:1007200030B5041E71F1000404DB4FF00044404278
:1007300064EB0101141E73F1000405DB1C464FF04D
:100740000043524263EB0403994208BF904230BD1C
:10075000064C074D06E0E06840F0010394E807000E
:1007600098471034AC42F6D3FFF710FD9C2E0108D9
:10077000DC2E0108202A06DBCB17203A41FA02F0D2
:1007800043EAE07306E041FA02F3D040C2F12002EE
:10079000914008431946704710B5141E73F10004C8
:1007A00008DA401C41F1000192185B411A4301D163
:1007B00020F0010010BD2DE9F04D92469B4611B18D
:1007C000B1FA81F202E0B0FA80F220329046FFF7EF
:1007D00072FD04460F4640EA0A0041EA0B01534607
:1007E0005A46084313D0114653EA010019D0C8F104
:1007F00040025046FFF7E4FD05460E465046594676
:100800004246FFF758FD084305D0012004E020468A
:100810003946BDE8F08D0020054346EAE0762C43DA
:1008200037430A986305E40AA0EB08000022FD0A9A
:1008300044EA47540A3002D500200146E9E70105A1
:1008400010196941DDE9084500196941BDE8F04D1D
:10085000A2E770B58C1810F8015B15F0070301D101
:1008600010F8013B2A1106D110F8012B03E010F813
:10087000016B01F8016B5B1EF9D12B0705D4002336
:10088000521E0DD401F8013BFAE710F8013BCB1AD8
:10089000921C03E013F8015B01F8015B521EF9D5CD
:1008A000A142D8D3002070BD00BFFEE710B50248BA
:1008B00000F033FD10BD0000A43D002010B50BF08A
:1008C000BFFF13481349C1F8B0001348C1F88400B2
:1008D0001248C1F888001248C1F888021148C1F8CE
:1008E0008C001148C1F8900000210A4811F08EF8E0
:1008F00011F052F904462146064810F075FF0B4BE3
:10090000002242F20201034807F0E0FD10BD0000A2
:10091000FDB1000844C7012001B2000891B20008EF
:1009200031B2000849B200081BBF0008D93A0008DC
:100930000346042B15D007DC7BB1012B0ED0022B14
:100940000DD0032B12D10BE0202B0BD0212B0AD082
:10095000222B09D0232B09D107E008E007E006E0AD
:1009600005E004E003E002E001E000E000BF00BFBA
:10097000002070470020704710B50848084988607B
:100980000020C881888100220649074808F08DFAB6
:100990000649054808F082FA002010BD98D50120CC
:1009A00008DE012098D10120D4C9012098CD012072
:1009B00070B505460E4619480068401C1749086086
:1009C00017480078012823D000241EE0285D0D2858
:1009D00001D00A280ED10021124A9268114BDB89FE
:1009E000D15401210E4A11700F490968491C0E4A61
:1009F000116009E00B4989680A4AD289885409497B
:100A0000C989491C074AD181641C3068A042DDD8DD
:100A1000064808F01FFA002070BD000054000020B6
:100A200095C1012008DE012050000020D4C901201A
:100A300070B504460D46D4F8A00050F82500C0F368
:100A400007464FF0FF30D4F8A41021F8150001211B
:100A500004F1B400815531462046D4F8B0209047C7
:100A600070BD2DE9FF4FDDE90D456CE0A5EB020AF5
:100A70004FFA8AF3002B04DD91F800A00AFA03FA7A
:100A800005E091F800A0C3F1000B4AFA0BFA0AF056
:100A9000FF0C002B02DDC5F1080A01E0C2F1080AD3
:100AA0000AF0FF08804501DD824600E0C246564656
:100AB00005EB060B4FF0FF0A0AFA0BFAC5F1080E18
:100AC0004FF0FF0B4BFA0EFB4AEA0B0A0AF0FF0746
:100AD0002CEA070994F800A00AEA070A84F800A0A3
:100AE00094F800A04AEA090A84F800A002EB060A7A
:100AF0000AF0FF0A5246BAF1070F0BDD0022DDF8BB
:100B00000CA0BAF1000F02D04FF0FF3A01E04FF015
:100B1000010A514405EB060A0AF0FF0A5546BAF1EC
:100B2000070F0BDD0025DDF83CA0BAF1000F02D065
:100B30004FF0FF3A01E04FF0010A5444A0EB060ADF
:100B40000AF0FF0000BF002890DCBDE8FF8F70476F
:100B50000146481C80B10A48B0F90000814205D125
:100B600007480088401E00B2054A1080002001EBB3
:100B70004102044B03F832004FF0FF307047000091
:100B8000ECC1012018E2012072B600BFFEE70000B0
:100B90002DE9F0414FF40067002520482049086006
:100BA00000BF12E01E48006800681E49884205D157
:100BB0001D491B48026805CA05C108E018480068BD
:100BC000083017490860681C85B2BD42EADB00BFE7
:100BD00015480068F8B900F02BFE0221012000F052
:100BE00025F8B0B900240026A04602F009FF0B4CFE
:100BF0000D4E04F1080809E03178204600F066F84F
:100C000010B9641C761C01E000BFFEE74445F3D335
:100C100000BF00F003FEBDE8F081000000400008C6
:100C20008000002025E0CDAB780000202DE9F041C8
:100C300005460C460027002604B909E0012C01D125
:100C4000270205E0022C01D1270201E04FF4407792
:100C50004CF2503000F0AEF806468EBB1A480068E1
:100C600020F440701849086008460068384308605E
:100C70000846006820F0F800086008460068F8217F
:100C800091FAA1F1B1FA81F105FA01F141F0020105
:100C900008430D4908600846006840F48030086049
:100CA0004CF2503000F086F806460748006820F005
:100CB0000200054908600846006820F0F800086056
:100CC0003046BDE8F0810000103C024070B504469B
:100CD0000D4600264CF2503000F06CF80646CEB9B6
:100CE0000D48006820F440700B4908600846006811
:100CF00008600846006840F00100086025704CF26A
:100D0000503000F057F806460348006820F0010014
:100D100001490860304670BD103C0240234800681D
:100D200000F0100040B12248C06940F0080020499E
:100D3000C86110201D4908601C48006800F02000B0
:100D400040B11B48C06940F004001949C861202027
:100D5000164908601548006800F0400040B114488A
:100D6000C06940F002001249C86140200F49086084
:100D70000E48006800F0800040B10D48C06940F0A6
:100D800001000B49C86180200849086007480068D5
:100D900000F0020040B10648C06940F0100004496C
:100DA000C861022001490860704700000C3C024005
:100DB0009400002070B50446002500201449C86145
:100DC00000F05CFE054609E0601C38B124B100F07B
:100DD00055FE401BA04201D9032070BD0D4800689C
:100DE00000F480300028EFD10A48006800F00100CC
:100DF00010B10120074908600648006800F0F200C1
:100E000018B1FFF78BFF0120E7E70020E5E70000BE
:100E1000940000200C3C024070B50A480468001D94
:100E20000568001D0668344454B10822064920466E
:100E300002F0F0FD042204491031284602F0EAFDD8
:100E400070BD0000107AFF1F3600002070B5044608
:100E50000E46D4F83C01006860B3002527E004F199
:100E6000B400405D0F2820D020680078A8421CD034
:100E700004F5A270405D00280BDCD4F8380120B1E5
:100E800029462046D4F838219047012104F1B400C6
:100E9000415504F5A270405D401EC1B204F5A27038
:100EA0004155294620460BF0F9FD681CC5B2802D3E
:100EB000D5DB05E0B4F93401FFF74AFEA4F83401AC
:100EC00070BD10B5024692F82030012B01D0022BE4
:100ED00006D110684069084314686061002010BDA5
:100EE000506A40F4802050620120F8E7F0B50446D3
:100EF0000D461E4694F8207020688368A86800B9E3
:100F000000E000BF012F01D0022F7CD103F08060F0
:100F100030B903F0006018B903F08050002873D096
:100F2000C3F30161022905D9606A40F400006062E0
:100F30000120F0BD012088403060A86860B9B5F894
:100F400000C0E86840EA4C5C206800F5C07000EB27
:100F50000110C0F800C00FE0D5E901C040EACC00A4
:100F6000D5F80CC040EA0C00D4F800C00CF5C07CE9
:100F70000CEB011CCCF80000D5F810C0206800F57F
:100F8000C07000EB0110C0F804C0287D01280ED10C
:100F9000206800F5C07000EB0110406840F4807CD0
:100FA000206800F5C07000EB0110C0F804C0D079D3
:100FB000000692F806C040EA0C4092F805C040EAEC
:100FC0000C2C10794CEA000C206800F5C07000EB86
:100FD0000110C0F80CC0D078000692F802C040EAB8
:100FE0000C4092F801C040EA0C2092F800C040EAA0
:100FF0000C00D4F800C00CF5C07C0CEB011CCCF844
:101000000800206801E016E00FE000F5C07000EB7A
:101010000110006840F0010C206800F5C07000EB82
:101020000110C0F800C0002083E7606A40F400109F
:10103000606201207DE7606A40F4802060620120E8
:1010400077E70000F0B504460A46216894F820507E
:10105000012D01D0022D7ED1424901F500710868B1
:1010600040F001000860086820F47C5008600868BF
:10107000566A40EA06200860107D00F01F06012035
:1010800000FA06F3C8699843C861A1F50071D069F8
:10109000C8B9D1F80C029843C1F80C02908880B20C
:1010A000968940EA064601F51070576940F83760A6
:1010B000108880B2168940EA064601F5107057691B
:1010C00000EBC7004660D069012819D1D1F80C02A5
:1010D0001843C1F80C02908880B2168840EA064690
:1010E00001F51070576940F83760908980B2168911
:1010F00040EA064601F51070576900EBC7004660EC
:10110000906928B9D1F804029843C1F8040204E0B8
:10111000D1F804021843C1F80402106928B9D1F8C3
:1011200014029843C1F8140204E0D1F814021843E1
:10113000C1F81402106A012804D1D1F81C02184326
:10114000C1F81C02D1F8000220F00100C1F8000231
:101150000020F0BDFFE7606A40F48020606201205B
:10116000F7E7000000640040704770B5044694F84B
:101170002050012D01D0022D7DD151B92068C068C9
:1011800000F0030080B9606A40F400106062012042
:1011900070BD2068006900F0030028B9606A40F45F
:1011A000001060620120F3E7206800F5D87000EBC2
:1011B0000110006800F004009060906840B9206859
:1011C00000F5D87000EB01100068400D106007E0DA
:1011D000206800F5D87000EB01100068C00850606E
:1011E000206800F5D87000EB0110006800F00200E4
:1011F000D060206800F5D87000EB0110406800F066
:101200000F001061206800F5D87000EB01104068F5
:1012100000F47F40000A9061206800F5D87000EB70
:1012200001104068000C5061206800F5D87000EB98
:10123000011080681870206800F5D87000EB01106C
:10124000806800F47F40000A5870206800F5D8706C
:1012500000EB0110806800F47F00000C987020689B
:1012600000F5D87000EB01108068000ED87020687F
:1012700000F5D87000E02FE000EB0110C068187195
:10128000206800F5D87000EB0110C06800F47F40C2
:10129000000A5871206800F5D87000EB0110C06892
:1012A00000F47F00000C9871206800F5D87000EB06
:1012B0000110C068000ED87131B92068C06840F0D4
:1012C00020002668F06005E02068006940F02000FA
:1012D0002668306100205BE7606A40F4802060622D
:1012E000012055E70146002091F82020012A01D075
:1012F000022A11D10B689B6803F0806303B1401C84
:101300000B689B6803F0006303B1401C0B689B688B
:1013100003F0805303B1401C70472DE9F05F044691
:101320000025206846692068D0F804902068876806
:101330002068D0F80CA02068D0F810B02068D0F851
:10134000188006F00100002855D007F00100C0B158
:1013500001202168886007F0020018B1204600F0E3
:1013600042FA0EE007F0040010B145F4006508E011
:1013700007F0080010B145F4805502E0204600F067
:1013800031FA07F48070C8B14FF48070216888602A
:1013900007F4007018B1204600F027FA0EE007F4B9
:1013A000806010B145F4005508E007F4006010B10A
:1013B00045F4804502E0204600F016FA07F480303C
:1013C000C8B14FF480302168886007F4003018B14C
:1013D000204600F00CFA0EE007F4802010B145F42E
:1013E000004508E007F4002010B145F4803502E024
:1013F000204600F0FBF906F0080038B10AF01000B2
:1014000020B145F4007510202168C86006F0040082
:1014100040B10AF0080028B108202168C8602046C1
:1014200000F0A8F906F0020038B12068C06800F0AA
:10143000030010B1204600F09EF906F0400038B1DC
:101440000BF0100020B145F4806510202168086180
:1014500006F0200040B10BF0080028B108202168F8
:101460000861204600F08CF906F0100038B12068C1
:10147000006900F0030010B1204600F082F906F484
:10148000003040B109F0100028B1102021684860F8
:10149000204600F077F906F4803040B109F00800EA
:1014A00028B1082021684860204600F0A1F906F420
:1014B000004088B309F0040078B306F4807020B1CE
:1014C00008F0010008B145F0010506F4007020B1F4
:1014D00008F0020008B145F0020506F4806020B172
:1014E00008F0040008B145F0040506F40060A0B15E
:1014F00008F0700088B108F07000402817D006DCB2
:1015000010280BD020280CD0302819D10CE05028FE
:1015100010D0602814D110E01DE019E045F0080556
:101520000FE045F010050CE045F0200509E045F01E
:10153000400506E045F0800503E045F4807500E0D5
:1015400000BF00BF2068806920F0700021688861BA
:101550000420216848602DB1606A284360622046FB
:10156000FFF702FEBDE8F09F70B504460CB90120FC
:1015700070BD94F8200010B9204600F0AFF8206844
:10158000006840F001002168086000F077FA054625
:101590000DE000F073FA401B0A2808D9606A40F495
:1015A00000306062052084F820000120E0E7206818
:1015B000406800F001000028EBD02068006820F0AF
:1015C00002002168086000F059FA05460DE000F0BD
:1015D00055FA401B0A2808D9606A40F4003060625E
:1015E000052084F820000120C2E72068406800F050
:1015F00002000028EBD1207E012806D12068006877
:1016000040F080002168086005E02068006820F054
:10161000800021680860607E012806D1206800688B
:1016200040F040002168086005E02068006820F074
:10163000400021680860A07E012806D1206800686B
:1016400040F020002168086005E02068006820F074
:10165000200021680860E07E012806D1206800682B
:1016600020F010002168086005E02068006840F064
:10167000100021680860207F012806D120680068DA
:1016800040F008002168086005E02068006820F04C
:10169000080021680860607F012806D12068006882
:1016A00040F004002168086005E02068006820F030
:1016B000040021680860D4E9020108432169084355
:1016C000616908436168491E08432168C8610020B8
:1016D0006062012084F82000002049E710B586B040
:1016E0000446142101A8FEF70EFE1F492068884217
:1016F00038D100BF002000901C48006840F0007006
:101700001A4908600846006800F00070009000BFA9
:1017100000BF00BF0020009014481038006840F05F
:1017200001001249103908600846006800F0010005
:10173000009000BF00BF4FF4C05001900220029003
:1017400000200390032004900920059001A9084877
:1017500000F088F800220521142000F027FC142056
:1017600000F014FC06B010BD006400404038024098
:1017700000000240704710B504460AF0A7FD10BDF6
:1017800070477047704770B5044694F820000128F0
:1017900022D1022084F820002068006820F0010097
:1017A0002168086000F06AF905460DE000F066F96E
:1017B000401B0A2808D9606A40F4003060620520A6
:1017C00084F82000012070BD2068406800F001000E
:1017D0000028EBD16062F6E7606A40F400206062A6
:1017E0000120F0E7704770477047704770477047B7
:1017F0007047000031B500F041F90546009C601CBF
:1018000010B105480078044400BF00F037F9401BD0
:10181000A042FAD338BD00007000002003480068E1
:1018200040F000400149086000207047103C024031
:1018300000200949096801F0004159B10749064AE9
:101840000C3A1160064911600349096801F0004132
:1018500001B1012070470000103C024023016745A0
:10186000AB89EFCD78B502460B460021D9E00126C1
:101870008E401D6805EA0604002C74D01D7905F021
:101880000305012D04D01D7905F00305022D13D1A8
:1018900090684E000325B540A8434E00DD68B54072
:1018A00028439060506801258D40A8431D79C5F3F9
:1018B00000158D40284350601D7905F00305032D68
:1018C00009D0D0684E000325B540A8434E009D685E
:1018D000B5402843D0601D7905F00305022D13D1D2
:1018E000CE0802F1200555F826004D07EE0E0F2513
:1018F000B540A8434E07F60E1D69B5402843CE08F3
:1019000002F1200545F8260010684E000325B54079
:10191000A8431D7905F003054E00B540284310602B
:101920005D6805F44035002D7AD000BF0025009594
:101930003F4D2D6845F480453D4E356035462D6858
:1019400005F48045009500BF00BF3A4D8E0855F85C
:1019500026008D072E0F0F25B540A843364DAA420D
:1019600002D1002529E05BE0344DAA4201D10125D6
:1019700023E0334DAA4201D102251EE0314DAA4297
:1019800001D1032519E0304DAA4201D1042514E00C
:101990002E4DAA4201D105250FE02D4DAA4201D1BD
:1019A00006250AE02B4DAA4201D1072505E02A4D64
:1019B000AA4201D1082500E009258E07360FB5405F
:1019C00028431C4D8E0845F82600244D2868A04366
:1019D0005D6805F4803505B12043204D28602D1D3C
:1019E0002868A0435D6805F4003505B120431B4D10
:1019F0002D1D28602D1D2868A0435D6805F4801505
:101A000005B12043154D083528602D1D2868A043D9
:101A10005D6805F4001505B12043104D0C352860B4
:101A2000491C1D68CD40002D7FF421AF78BD00001A
:101A300044380240083801400000024000040240DF
:101A400000080240000C0240001002400014024056
:101A500000180240001C024000200240003C0140EF
:101A6000024613690B400BB1012000E000207047D3
:101A70000AB1816101E00B0483617047014800688D
:101A8000704700006800002070B504460CB90120C2
:101A900070BD94F83D0028B9002084F83C00204631
:101AA00000F08CF9242084F83D002068006820F0C4
:101AB0000100216808602068006840F40040216847
:101AC00008602068006820F400402168086001F088
:101AD00099F905465C496068884206D85B488542AA
:101AE00001D2012007E0002005E05948854201D2DB
:101AF000012000E00020012800D1C9E75548B5FBCE
:101B0000F0F62068406820F03F00304321684860CC
:101B10004D496068884201D8701C07E04FF4967008
:101B200070434FF47A71B0FBF1F0401C2168096AF0
:101B300021F03F01084321680862434960688842F8
:101B400014D8681E61684900B0FBF1F0401CC0F376
:101B50000B00042801D204203DE0681E61684900A2
:101B6000B0FBF1F0401CC0F30B0034E0A06838B9C2
:101B7000681E616801EB4101B0FBF1F0401C0AE016
:101B8000681E616801EBC10202EB0111B0FBF1F0CC
:101B9000401C40F48040C0F30B0008B901201AE05B
:101BA000A06848B9681E616801EB4101B0FBF1F023
:101BB000401CC0F30B000CE0681E616801EBC10221
:101BC00002EB0111B0FBF1F0401CC0F30B0040F43C
:101BD000804040F400402168C9694CF6FF7291438F
:101BE00008432168C861D4E90701084321680968EE
:101BF00021F0C001084321680860D4E903100843BC
:101C00002168896848F2FF3291430843216888605F
:101C1000D4E9050108432168C96821F0FF010843A0
:101C20002168C8602068006840F0010021680860F1
:101C300000202064202084F83D000020206384F8E8
:101C40003E0000BF24E70000A086010080841E0043
:101C500000093D0040420F002DE9FC5F04460F469D
:101C600090469946DDE90CAB0E9EFFF707FF05464F
:101C700094F83D0020287DD1192301224D492046AA
:101C8000009501F0E9FD10B10220BDE8FC9F00BF06
:101C900094F83C00012801D10220F6E7012084F8E5
:101CA0003C0000BF2068006800F0010028B92068EF
:101CB000006840F00100216808602068006820F496
:101CC000006021680860212084F83D00402084F8ED
:101CD0003E0000202064C4F824A0A4F82AB0608D3F
:101CE00020853548E0624B46424639462046CDE9DC
:101CF000006501F013FD08B10120C6E731E02A4676
:101D00003146204601F04DFE50B1206C042805D12B
:101D10002068006840F40070216808600120B4E782
:101D2000606A007821680861606A401C6062208DEA
:101D3000401E2085608D401E608520684069C0F38C
:101D4000800070B1208D60B1606A00782168086100
:101D5000606A401C6062208D401E2085608D401EA0
:101D60006085208D0028CAD12A463146204601F0E0
:101D700045FD00E01CE050B1206C042805D120682E
:101D8000006840F400702168086001207DE7206849
:101D9000006840F4007021680860202084F83D004D
:101DA000002084F83E0000BF84F83C0000BF6CE7D0
:101DB00002206AE7020010000000FFFF10B586B0A5
:101DC0000446142101A8FEF79EFA1B4920688842A8
:101DD00030D100BF002000901848006840F0020099
:101DE000164908600846006800F00200009000BF35
:101DF00000BF4FF440700190122002900020039029
:101E0000032004900420059001A90D48FFF72AFD46
:101E100000BF0020009009481030006840F4001016
:101E20000649103108600846006800F40010009070
:101E300000BF00BF06B010BD005400403038024063
:101E40000004024003480068034909780844014936
:101E500008607047680000207000002010B50D4831
:101E6000006840F400700B4908600846006840F4C0
:101E7000806008600846006840F4807008600320B5
:101E800000F0D2F80F2000F007F800F055F800201D
:101E900010BD0000003C0240F0B587B004460026AB
:101EA000002700BF002000901E48006840F001009D
:101EB0001C4908600846006800F00100009000BF5F
:101EC00000BF01A902A800F075FF00F0B1FF4600B5
:101ED0001548B6FBF0F0471E14481549086040F25B
:101EE000E7311348C1604760002101618160816171
:101EF00001F06CFA054695B90D4801F0BFFA0546A8
:101F00006DB9192000F042F8102C07D200222146AA
:101F1000192000F04BF80748046000E0012528462E
:101F200007B0F0BD4438024040420F0000000140BD
:101F3000C0DD01206C00002008B500BF002000902B
:101F40001148006840F480400F4908600846006866
:101F500000F48040009000BF00BF00BF0020009050
:101F6000081F006840F08050091F0860084600689C
:101F700000F08050009000BF00BF00220F21901E93
:101F800000F014F808BD000044380240014608463D
:101F9000002809DB00F01F0301229A4043099B003F
:101FA00003F1E023C3F8002100BF70472DE9F05F83
:101FB00080460D461646002708F090FF0746394632
:101FC0002A46334601F00700C0F1070ABAF1040FB0
:101FD00002D94FF0040A01E0C0F1070AD14600F12E
:101FE000040ABAF1070F02D24FF0000A01E0A0F193
:101FF000030AD4464FF0010A0AFA09FAAAF1010AC3
:102000000AEA020A0AFA0CFA4FF0010B0BFA0CFB6F
:10201000ABF1010B0BEA030B4AEA0B0421464046E5
:1020200008F064FFBDE8F09F00BF00F00702064B18
:1020300019684FF6FF031940044B0B4343EA022192
:10204000014B196000BF70470CED00E00000FA057D
:1020500002461068416200207047F0B503461546FD
:102060001868446A21B944EA05401E68B06219E064
:102070001868806A04EB1044002208E0186800F534
:10208000827050F8220004EB1044501CC2B2481E6B
:102090009042F3D844EA0547186800F582704E1E56
:1020A00040F826700020F0BD10B50446D4F8FC03BB
:1020B00001F0A1FF10BD70B504460D46C5EBC50388
:1020C00004F13C0101EB8301CA682946D4F8FC0302
:1020D00007F05FFA70BD70B504460D46C5EBC50349
:1020E00004F5FE7101EB8301CA682946D4F8FC03AC
:1020F00007F0CFFA70BD10B50446D4F8FC0307F022
:102100001BFB10BD70B504460E4606F0800080280B
:102110000AD106F00F00C0EBC00104F13C0000EB57
:1021200081050120687009E006F00F00C0EBC001D6
:1021300004F5FE7000EB81050020687006F00F00CA
:10214000287000BF94F8BC03012801D1022070BDA3
:10215000012084F8BC0300BF2946206807F0D8FF9F
:1021600000BF002084F8BC0300BF00BFEFE770B5DC
:1021700004460E4606F00F006168884201D901202E
:1021800070BD06F0800080280AD106F00F00C0EB79
:10219000C00104F13C0000EB81050120687009E0FA
:1021A00006F00F00C0EBC00104F5FE7000EB8105E6
:1021B000002068700020A87006F00F00287000BF93
:1021C00094F8BC03012801D10220D9E7012084F84A
:1021D000BC0300BF2946206808F080FA00BF002039
:1021E00084F8BC0300BF00BFCAE7024601F00F003D
:1021F000C0EBC00302F5FE7000EB830080697047FE
:102200002DE9F04705460E4690461F464FF000095F
:1022100006F0800080280AD106F00F00C0EBC00154
:1022200005F13C0000EB81040120607009E006F03C
:102230000F00C0EBC00105F5FE7000EB810400202B
:10224000607006F00F002070C4F80880E7706078B6
:1022500008B12078E080022F01D10020207100BF5A
:1022600095F8BC03012802D10220BDE8F0870120C7
:1022700085F8BC0300BF2146286807F06BFE00BF4D
:10228000002085F8BC0300BF4846EEE72DE9F04189
:1022900004460E461746984606F00F00C0EBC001F4
:1022A00004F5FE7000EB8105EF60C5F81480002096
:1022B000A861687006F00F0028702069012800D11D
:1022C0002F6106F00F0028B9227C2946206808F00B
:1022D000E1F804E0227C2946206808F093FA002007
:1022E000BDE8F08170B504460D4605F00F00616849
:1022F000884201D9012070BD05F0800080280AD1F4
:1023000005F00F00C0EBC00104F13C0000EB8106BA
:102310000120707007E0C5EBC50104F5FE7000EB0D
:102320008106002070700120B07005F00F00307041
:1023300000BF94F8BC03012801D10220DBE7012093
:1023400084F8BC0300BF3146206808F00EFA05F09F
:102350000F0028B9217C04F57172206808F086F915
:1023600000BF002084F8BC0300BF00BFC3E72DE915
:10237000F04104460E461746984606F00F00C0EBA3
:10238000C00104F13C0000EB8105EF60C5F814804A
:102390000020A8610120687006F00F0028702069F5
:1023A000012800D12F6106F00F0028B9227C2946B0
:1023B000206808F06FF804E0227C2946206808F0C5
:1023C00021FA0020BDE8F0812DE9FE4F0446206887
:1023D0000290029D206808F000FC00287DD1206852
:1023E00008F03AFC08B9BDE8FE8F206808F034FC1C
:1023F00000F00200022805D12068406900F00200C8
:1024000021684861206808F027FC00F010001028BF
:1024100046D12068806920F0100021688861029808
:10242000D0F8209009F00F00C0EBC00104F5FE7059
:1024300000EB810AC9F3434002281AD147F6F07035
:1024400009EA000030B3C9F30A12DAF80C10029856
:1024500008F007FCC9F30A11DAF80C000844CAF8BE
:102460000C00C9F30A11DAF818000844CAF8180079
:1024700010E0C9F3434006280CD1082204F571711D
:10248000029808F0EEFBC9F30A11DAF818000844C4
:10249000CAF818002068806940F01000216888613F
:1024A000206808F0D9FB00F40020B0F5002F52D1CD
:1024B0000026206808F0A0FB834649E00BF00100ED
:1024C000E8B3F1B2206808F0BAFB804608F00100DA
:1024D00058B1012105F5306000E015E200EB46102F
:1024E00081603146204605F0F5FD08F00800082817
:1024F00009D1082105F5306000EB461081603146B6
:10250000204605F0B5FD08F01000102805D1102177
:1025100005F5306000EB4610816008F020002028AF
:1025200005D1202105F5306000EB4610816008F4EC
:102530000050B0F5005F08D14FF4005100E004E016
:1025400005F5306000EB46108160761C4FEA5B0BAE
:10255000BBF1000FB2D1206808F07EFB00F48020B0
:10256000B0F5802F7ED1206808F03CFB8346002622
:1025700083E00BF0010000287CD0F1B2206808F065
:1025800045FB804608F00100F0B306F00F01012082
:102590008840019040F634004159019821EA00003A
:1025A00040F634014851012105F5106000EB46105A
:1025B00081602069012824D1C6EBC60104F13C00EA
:1025C00000EB8100C6EBC602C16804F13C0000EBE1
:1025D000820080680144C6EBC60204F13C0000EBB7
:1025E0008200C1606EB9C6EBC60104F13C0000EB8D
:1025F0008100406928B904F571720121206808F052
:1026000035F8F1B2204600E001E0FFF754FD08F094
:102610000800082805D1082105F5106000EB4610D8
:10262000816008F01000102805D1102105F5106018
:1026300000EB4610816008F04000402805D14021A1
:1026400005F5106000EB4610816008F002000228DA
:1026500005D1022105F5106000EB4610816008F0FD
:10266000800001E00DE005E0802803D131462046DE
:1026700005F0EEFD761C4FEA5B0BBBF1000F7FF41B
:1026800078AF206808F0E8FA00F00040B0F1004FA1
:1026900010D140F60400405920F0010140F604003A
:1026A0004151204600F05AFA2068406900F000408D
:1026B00021684861206808F0CFFA00F40060B0F5A6
:1026C000006F0ED140F60800405900F0010010B133
:1026D000204600F08FFA2068406900F4006021680D
:1026E0004861206808F0B8FA00F48050B0F5805FC7
:1026F0007DD140F60400405920F0010140F604006D
:1027000041511021206808F03DFA00273EE04FF6C5
:102710007F3105F5106000EB4710816005F5106012
:1027200000EB4710006820F4001105F5106000EB85
:102730004710016005F5106000EB4710006840F09D
:10274000006105F5106000EB471001604FF67F3126
:1027500005F5306000EB4710816005F5306000EB57
:102760004710006820F4001105F5306000EB4710B9
:10277000016005F5306000EB4710006840F0006133
:1027800005F5306000EB471001607F1C6068B842BF
:10279000BDD840F61C00405940F0011140F61C0025
:1027A0004151206B70B1D5F8840840F00B01C5F899
:1027B000841840F64400405940F00B0140F64400B4
:1027C00041510FE040F61400405942F22B010843FA
:1027D00040F614014851081F405940F00B014FF4D6
:1027E00001604151D5F8000820F4FE6000E00DE0E2
:1027F000C5F80008217C04F57172206807F036FFE7
:102800002068406900F4805021684861206808F021
:1028100023FA00F40050B0F5005F17D1206807F0EC
:1028200001FC206808F0C6F9E06000F0E5FA0090CD
:10283000227B2068009908F097FA204600F076F98C
:102840002068406900F4005021684861206808F061
:1028500003FA00F00800082808D1204600F085F9A6
:102860002068406900F0080021684861206808F08D
:10287000F3F900F48010B0F5801F0AD1002631462C
:10288000204600F043F82068406900F48010216879
:102890004861206808F0E0F900F40010B0F5001F6E
:1028A0000AD100263146204600F039F820684069F8
:1028B00000F4001021684861206808F0CDF900F0AC
:1028C0008040B0F1804F08D12046FFF7EDFB206833
:1028D000406900F0804021684861206808F0BCF938
:1028E00000F0040004280FD12068D0F8049009F00B
:1028F0000400042802D12046FFF7FDFB2068406851
:1029000040EA09002168486000BF6CE570B50446E4
:102910000D462946D4F8FC0306F078FF70BD70B56B
:1029200004460D462946D4F8FC0306F072FF70BD3C
:1029300070B58AB0044614B901200AB070BD26688B
:1029400094F8BD0328B9002084F8BC03204600F0A9
:10295000A3F8032084F8BD03F06B00F4807008B97D
:1029600000212161206807F08DFD282204F110016B
:102970006846FDF7AFFC94E80F0007F067FB20B155
:10298000022084F8BD030120D7E70021206808F069
:1029900098F9002531E00121C5EBC50204F13C00A6
:1029A00000EB82004170C5EBC50104F13C0000F86A
:1029B0002150C5EBC50100EB8100C5800021C5EBAE
:1029C000C50204F13C0000EB8200C170C5EBC502FA
:1029D00004F13C0000EB82008160C5EBC50204F10C
:1029E0003C0000EB8200C160C5EBC50204F13C0075
:1029F00000EB82004161681CC5B26068A842CAD879
:102A000000252AE00021C5EBC50204F5FE7000EBAD
:102A100082004170C5EBC50104F5FE7000F821503D
:102A20000021C5EBC50200EB8200C170C5EBC502F9
:102A300004F5FE7000EB82008160C5EBC50204F571
:102A4000FE7000EB8200C160C5EBC50204F5FE70AC
:102A500000EB82004161681CC5B26068A842D1D811
:102A6000282204F110016846FDF734FC94E80F00B9
:102A700007F018FC20B1022084F8BD0301205CE7B8
:102A8000002084F83800012084F8BD03206807F096
:102A9000F7FB002051E7000010B586B00446142172
:102AA00001A8FDF730FC1E492068884236D100BFDE
:102AB000002000901B48006840F00200194908609F
:102AC0000846006800F00200009000BF00BF4FF40D
:102AD00040400190022002900020039003200490C7
:102AE0000C20059001A91048FEF7BCFE00BF002095
:102AF00000900C48006840F000500A490860084601
:102B0000006800F00050009000BF00BF00220521C7
:102B10004D20FFF74BFA4D20FFF738FA06B010BDF5
:102B200000000440303802400004024070B5044602
:102B30000125E06808B9002506E0E068022801D117
:102B4000012501E0FEF720F82946D4F8FC0306F041
:102B5000DDFED4F8FC0306F08FFE70BD10B5044610
:102B6000D4F8FC0306F0B6FE10BD10B50446D4F848
:102B7000FC0306F0BAFE10BD70B504460D4600BF5A
:102B800094F8BC03012801D1022070BD012084F813
:102B9000BC0300BF84F838502946206808F0C5F807
:102BA00000BF002084F8BC0300BF00BFEDE710B5F4
:102BB000044604F57171D4F8FC0306F0BEFE10BDA6
:102BC00010B5044600BF94F8BC03012801D10220CF
:102BD00010BD012084F8BC0300BF206807F0B4FFDB
:102BE000206807F03BFB00BF002084F8BC0300BF57
:102BF00000BFEDE710B50446D4F8FC0306F0F6FE7E
:102C00002068D0F8000E40F001002168C1F8000EE5
:102C1000206A28B10348006840F0060001490860B6
:102C200010BD000010ED00E070B504460D460CB973
:102C3000012070BD5A48006800F00F00A84209D278
:102C400057490D700846006800F00F00A84201D0F7
:102C50000120EEE7207800F0020002281DD1207844
:102C600000F00400042805D14E48006840F4E0500C
:102C70004C490860207800F00800082805D1494830
:102C8000006840F46040474908604648006820F00A
:102C9000F000A168084343490860207800F0010073
:102CA00090B36068012807D13E4808380068C0F337
:102CB0004040A0B90120BCE76068022807D139482C
:102CC00008380068C0F3406048B90120B1E73548D2
:102CD00008380068C0F3400008B90120A9E731486E
:102CE000006820F00300616808432E490860FEF781
:102CF000C5FE064609E0FEF7C1FE801B41F28831A1
:102D0000884202D9032094E707E02648006800F0D3
:102D10000C006168B0EB810FEDD12148006800F034
:102D20000F00A84209D91E490D700846006800F03E
:102D30000F00A84201D001207BE7207800F00400BA
:102D4000042807D11748006820F4E050E1680843E0
:102D500014490860207800F00800082808D11148BC
:102D6000006820F46040216940EAC1000D49086014
:102D700000F074F80B49096801F0F001F02292FAB2
:102D8000A2F2B2FA82F2D140074A515CC840074928
:102D9000086007480068FFF77FF8002049E7000057
:102DA000003C024008380240E4260108740000207C
:102DB0006C0000200F2202600D4A126802F003022C
:102DC00042600B4A126802F0F0028260084A126800
:102DD00002F4E052C260064A126802F46042D2086D
:102DE0000261044A126802F00F020A607047000094
:102DF00008380240003C024001480068704700006B
:102E00007400002000B5FFF7F7FF0749096801F4D7
:102E1000E0514FF4E05292FAA2F2B2FA82F2D140BB
:102E2000024A515CC84000BD08380240F42601083F
:102E300000B5FFF7E1FF0749096801F460414FF46D
:102E4000604292FAA2F2B2FA82F2D140024A515C96
:102E5000C84000BD08380240F42601082DE9F047BB
:102E6000002400250026A1462548006800F00C003B
:102E700020B1042805D008283AD105E0DFF8849075
:102E800039E0DFF8849036E01D48001F006800F04C
:102E90003F041B48001F006800F4800078B11A4806
:102EA0001749091F0968C1F38811A0FB0170014689
:102EB000224600233846FDF7CDF905460EE01148BD
:102EC0000F49091F0968C1F38811A0FB0170014671
:102ED000224600233846FDF7BDF905460848001F85
:102EE0000068C0F30140401C4600B5FBF6F902E063
:102EF000DFF8109000BF00BF4846BDE8F087000033
:102F0000083802400024F400001BB700F8B504465E
:102F10000CB90120F8BD207800F00100002848D04D
:102F2000F748006800F00C0004280DD0F448006851
:102F300000F00C00082811D1F148001F006800F4CF
:102F40008000B0F5800F09D1ED4808380068C0F363
:102F5000404070B3606860BB0120DBE72079E8493E
:102F6000891F0870606890B1FEF788FD054606E08D
:102F7000FEF784FD401B642801D90320CAE7E0481E
:102F800008380068C0F340400028F1D011E0FEF797
:102F900075FD054606E0FEF771FD401B642801D96A
:102FA0000320B7E7D64808380068C0F3404000283F
:102FB000F1D1207800F00200022869D1D0480068E1
:102FC00000F00C0058B1CE48006800F00C00082852
:102FD00021D1CB48001F006800F48000D8B9C84850
:102FE00008380068C0F3400020B1E068012801D033
:102FF00001208FE7C2480838006820F0F800F82266
:1030000092FAA2F2B2FA82F2216991400843BC49D5
:10301000083908603CE0E06828B30120B94908603D
:10302000FEF72CFD054606E0FEF728FD401B0228B2
:1030300001D903206EE7B24808380068C0F34000A9
:103040000028F1D0AE480838006820F0F800F822D7
:1030500092FAA2F2B2FA82F2216991400843A84999
:103060000839086014E00020A6490860FEF706FD54
:10307000054606E0FEF702FD401B022801D90320A9
:1030800048E79F4808380068C0F340000028F1D1A5
:10309000207800F0080008282CD16069A8B1012030
:1030A00099490860FEF7EAFC054606E0FEF7E6FCF3
:1030B000401B022801D903202CE791486C3000689E
:1030C000C0F340000028F1D014E000208E490860D1
:1030D000FEF7D4FC054606E0FEF7D0FC401B0228B4
:1030E00001D9032016E786486C300068C0F3400021
:1030F0000028F1D1207800F00400042874D10026C3
:103100007F483830006800F0805090B900BF002040
:1031100000907B483830006840F080507849383162
:1031200008600846006800F08050009000BF00BFB3
:1031300001267648006840F48070744908600846AB
:10314000006800F48070A8B90846006840F48070F8
:103150000860FEF793FC054606E0FEF78FFC401B77
:10316000022801D90320D5E66848006800F4807081
:103170000028F2D0207A624968310870A068A0B1B6
:10318000FEF77CFC054608E0FEF778FC401B41F2A8
:103190008831884201D90320BCE65948683000686C
:1031A000C0F340000028EFD013E0FEF767FC0546AF
:1031B00008E0FEF763FC401B41F28831884201D9E8
:1031C0000320A7E64E4868300068C0F3400000289E
:1031D000EFD1012E07D14A483830006820F08050E6
:1031E00047493831086000BFA06900284BD04448E7
:1031F000006800F00C0008285CD0A069022843D1C8
:10320000002040490866FEF739FC054606E0FEF757
:1032100035FC401B642801D903207BE63848083878
:103220000068C0F340600028F1D1D4E907010843E9
:10323000616A40EA81112C20005D41EA00610122AF
:10324000A06AC2EB500041EA00402D49091F0968FD
:103250002F4A114008432A49091F086001202949C3
:103260000866FEF70BFC054606E0FEF707FC401B70
:10327000642801D903204DE6214808380068C0F3CE
:1032800040600028F1D038E000201E490866FEF7B3
:10329000F5FB054606E0FEF7F1FB401B642801D96B
:1032A000032037E6164808380068C0F3406000285D
:1032B000F1D122E0A069012800D12BE61048001FBF
:1032C000016801F48002E069824213D101F03F02FB
:1032D000206A82420ED1C1F38812606A904209D1FD
:1032E00001F44032A06A824204D101F07062E06AC7
:1032F000824201D001200DE600BF00200AE6000056
:103300000838024000004742800E474200700040EB
:103310000080BCF07047704730B502460B4600BFD6
:1033200092F83C00012801D1022030BD012082F832
:103330003C0000BF022082F83D001068446810681D
:10334000816824F070041868044310684460184DC4
:103350001068A8421BD01068B0F1804F17D0154DEF
:103360001068A84213D0144D1068A8420FD0134D16
:103370001068A8420BD0124D1068A84207D0114D1A
:103380001068A84203D0104D1068A84205D121F062
:1033900080015868014310688160012082F83D0077
:1033A00000BF002082F83C0000BF00BFBDE7000066
:1033B000000001400004004000080040000C0040F4
:1033C00000040140004001400018004010B50446D0
:1033D0000CB9012010BD94F83D0028B9002084F8F4
:1033E0003C00204600F026F8022084F83D00211D14
:1033F000206805F0FFFA012084F8460000BF84F839
:103400003E0001213F20015540200155412001553A
:1034100000BF00BF012084F8420043200155442032
:1034200001554520015500BF012084F83D000020D2
:10343000D0E7000038B504460E492068884217D10D
:1034400000BF002000900C48006840F010000A49BE
:1034500008600846006800F01000009000BF00BF40
:10346000002205213620FEF7A1FD3620FEF78EFD55
:1034700038BD00000010004040380240014691F87D
:103480003D00012801D001207047022081F83D0055
:103490000868C06840F001000B68D8601A4B0868E3
:1034A00098421BD00868B0F1804F17D0174B0868BE
:1034B000984213D0164B086898420FD0154B0868F5
:1034C00098420BD0144B0868984207D0134B0868F9
:1034D000984203D0124B086898420CD10868806863
:1034E00000F00702062A0CD00868006840F00100CE
:1034F0000B68186005E00868006840F001000B6880
:1035000018600020C0E700000000014000040040F7
:1035100000080040000C0040000401400040014051
:1035200000180040704710B5044620680069C0F3D9
:103530004000D8B12068C068C0F34000B0B16FF05F
:10354000020021680861012020772068806900F06E
:10355000030018B12046FFF7E5FF05E0204600F024
:10356000ADF8204600F0ABF8002020772068006915
:10357000C0F38000D8B12068C068C0F38000B0B14B
:103580006FF00400216808610220207720688069BC
:1035900000F4407018B12046FFF7C4FF05E0204654
:1035A00000F08CF8204600F08AF800202077206890
:1035B0000069C0F3C000D8B12068C068C0F3C00083
:1035C000B0B16FF0080021680861042020772068FE
:1035D000C06900F0030018B12046FFF7A3FF05E023
:1035E000204600F06BF8204600F069F800202077B4
:1035F00020680069C0F30010D8B12068C068C0F32B
:103600000010B0B16FF01000216808610820207729
:103610002068C06900F4407018B12046FFF782FFAF
:1036200005E0204600F04AF8204600F048F8002067
:1036300020772068006900F0010058B12068C06858
:1036400000F0010030B16FF00100216808612046F0
:1036500000F036F820680069C0F3C01058B1206847
:10366000C068C0F3C01030B16FF0800021680861FD
:103670002046FFF74FFE20680069C0F3801058B164
:103680002068C068C0F3801030B16FF0400021683E
:103690000861204600F020F820680069C0F340105F
:1036A00058B12068C068C0F3401030B16FF02000FE
:1036B000216808612046FFF72EFE10BD7047704755
:1036C00010B5044603492068884201D1FEF7BAFBD1
:1036D00010BD000000000140704700BFFEE701463A
:1036E00008684069C0F38020B0B16FF480600A6858
:1036F000506100200863202081F83D00002081F8FF
:103700003E00086C40F00400086400BF002081F80F
:103710003C0000BF012070470020FCE72DE9F84382
:103720000446884615469946DDE908672068006822
:1037300040F4807021680860334600224FF0011188
:103740002046009700F088F860B12068006800F417
:103750008070B0F5807F02D14FF4007020640320A8
:10376000BDE8F88308F0FE00216808613B46324658
:103770002149204600F0B3F808B10120F0E700BF6E
:1037800000200090206840690090206880690090C7
:1037900000BF00BF3A463146204600F002F950B162
:1037A000206C042805D12068006840F4007021686E
:1037B00008600120D4E7B9F1010F03D1E8B2216814
:1037C000086117E0C5F30720216808613A463146D1
:1037D000204600F0E6F850B1206C042805D120689E
:1037E000006840F40070216808600120B8E7E8B282
:1037F000216808610020B3E70200010070B50446AB
:103800000D46164620E02046FFF769FF08B101206B
:1038100070BD681CC0B1FEF731F9801BA84200D80A
:1038200095B900202063202084F83D00002084F812
:103830003E00206C40F02000206400BF002084F88F
:103840003C0000BF0120E3E720684069C0F380002E
:103850000028D8D00020DBE72DE9F04104460D46D2
:1038600017461E46DDF818801CE0701CD0B1FEF72C
:1038700005F9A0EB0800B04200D89EB900202063F3
:10388000202084F83D00002084F83E00206C40F0A9
:103890002000206400BF002084F83C0000BF01200D
:1038A000BDE8F081C5F3074001280AD120684069CE
:1038B000A9B20840A9B2884201D101200BE0002042
:1038C00009E020688069A9B20840A9B2884201D104
:1038D000012000E00020B842C7D00020E0E72DE939
:1038E000F04104460D4616461F463DE020684069FB
:1038F000C0F38020E8B12068006840F400702168BF
:1039000008606FF4806021684861002020632020F7
:1039100084F83D00002084F83E00206C40F0040054
:10392000206400BF002084F83C0000BF0120BDE8F7
:10393000F081701CC0B1FEF7A1F8C01BB04200D8E6
:1039400096B900202063202084F83D00002084F8F0
:103950003E00206C40F02000206400BF002084F86E
:103960003C0000BF0120E2E7C5F3074001280AD16F
:1039700020684069A9B20840A9B2884201D101205B
:103980000BE0002009E020688069A9B20840A9B2D4
:10399000884201D1012000E000200028A6D00020AC
:1039A000C5E770B504460D46164620E02046FFF7F1
:1039B00096FE08B1012070BD681CC0B1FEF75EF82C
:1039C000801BA84200D895B900202063202084F8ED
:1039D0003D00002084F83E00206C40F02000206470
:1039E00000BF002084F83C0000BF0120E3E720680E
:1039F0004069C0F3C0100028D8D00020DBE70000E9
:103A000002480349086005200871704725E0CDABE6
:103A10007800002030B50B46002100BF16E00A24D4
:103A2000B4EB107F05D9302404EB107403F8114077
:103A300005E0412404EB10740A3C03F81140000136
:103A400000254C00641C1D554C1CE1B29142E6DB84
:103A500030BD000000B587B0952006903E2005904F
:103A6000FF20049000200390401E012106AA0B466F
:103A7000CDE9002102900A4668211648FEF7ECF8CD
:103A80004FF0FF30012105AA0B46CDE9002102903D
:103A90001D2268210F48FEF7DFF84FF0FF300121AB
:103AA00004AA0B46CDE9002102901E226821094894
:103AB000FEF7D2F84FF0FF30012103AA0B46CDE903
:103AC000002102901F2268210248FEF7C5F807B0C6
:103AD00000BD000030400020F0B504460D461646FB
:103AE0001E480078012837D11D4A00271368526804
:103AF00043EA070047EA02014FF47F3300EA03027A
:103B00000023920A42EA8352164B1A804FF07F63D9
:103B100000EA03020023120D42EA0332114B5A80DD
:103B20004FF040473F2300EA07020B40920F42EA62
:103B300083020C4B9A804FF47F420A40C2F30F225B
:103B4000DA804FF07F7301EA0302920C054B1A8171
:103B50000022024B1A7000BF0020F0BD04C20120F9
:103B6000FCC1012098DD012070B504460D46206996
:103B700001222946FDF77CFF70BD70B504460D4655
:103B8000206900222946FDF773FF70BDC160026104
:103B9000704770B504460D46E06800222946FDF7DF
:103BA00067FF70BD70B504460D46E06801222946E6
:103BB000FDF75EFF70BD70B504460D464FF41D70F5
:103BC000005D01280BD102214FF41D7001554FF407
:103BD0001B721159021D105908F0C2FA25E000218C
:103BE0004FF41D700155B4F97E02FCF7B1FF40F2AD
:103BF0007E210853206A007820B1881F0059C4F83C
:103C0000E40112E000214FF419700151012084F801
:103C100060024FF42070005938B140F26120015D1C
:103C20004FF4207002592046904770BD00B58BB00C
:103C30002648274908600C204860002124488160FC
:103C4000C1604FF4A02101614FF4001141610021D6
:103C50000176012141768176C1760021017701212B
:103C60004177FDF781FC08B1FCF78EFF0120099038
:103C700000200790012008900020019002900390FE
:103C80000490059001200990002006900E200A90D3
:103C900001A90F48FDF7D6F908B1FCF775FF0C48EC
:103CA000FDF771FD08B1FCF76FFF02210848FDF731
:103CB00008F908B1FCF768FF01210548FDF701F993
:103CC00008B1FCF761FF0BB000BD000000640040CC
:103CD000A43D002000B5A3B01C221E491CA8FCF77F
:103CE000F9FA00211CA808F0AAFF1B4908601C2251
:103CF00018491C3115A8FCF7EDFA002115A808F0A9
:103D00009EFF164908601C22124938310EA8FCF7A4
:103D1000E1FA00210EA808F092FF114908601C2268
:103D20000C49543107A8FCF7D5FA002107A808F080
:103D300086FF0C4908601C22064970316846FCF772
:103D4000C9FA0021684608F07AFF0749086023B0E5
:103D500000BD00001027010878C101207CC10120AE
:103D600080C1012084C1012088C1012000B587B035
:103D7000142102A8FCF7C7FA00BF002001902E48CA
:103D8000006840F080002C4908600846006800F098
:103D90008000019000BF00BF00BF002001900846D6
:103DA000006840F0040008600846006800F0040065
:103DB000019000BF00BF00BF0020019008460068CE
:103DC00040F0010008600846006800F00100019022
:103DD00000BF00BF00BF002001900846006840F00F
:103DE000020008600846006800F00200019000BF71
:103DF00000BF00221F211148FDF73AFE0122FF21DA
:103E00000F48FDF735FE1F2002900120039000208F
:103E10000490059002A90948FDF724FDFF200290B7
:103E20000120039000200490059002A90448FDF7AA
:103E300019FD07B000BD0000303802400008024004
:103E40000000024010B50B480B4908600B48486061
:103E5000002109488160C1604FF480410161002167
:103E600041618161C1610162FDF70EFE08B1FCF79D
:103E70008BFE10BD0054004030400020A0860100A1
:103E80001CB50020009001900E480F49086040F2D8
:103E9000DF10486000210C4881600121C1600021D1
:103EA0008161FFF793FA08B1FCF76EFE00200090E5
:103EB000019069460448FFF72FFA08B1FCF764FE49
:103EC0001CBD0000001000401442002010B501226B
:103ED0000D490E4805F01EFB08B1FCF755FE0C49D4
:103EE0000A4805F0B9FD08B1FCF74EFE094907483C
:103EF00004F0CDFF08B1FCF747FE044805F076FE5C
:103F000008B1FCF741FE10BD00000020D4C901201B
:103F100070C001205800002000BFFEE700BFFEE790
:103F20002DE9F0470025002600240027A1464FF484
:103F3000805828482849086000BF46E026480068A5
:103F400000682649884239D1FDF772FC224804688E
:103F5000002608E02046641C0021FCF7B7FE00B1F3
:103F600003E0701CC6B2082EF4D300BF681C4045A5
:103F700009D118481849086002210420FCF756FEB0
:103F800030B100BFFEE714480068083012490860ED
:103F900011480468124F006800F1080909E03978F7
:103FA0002046FCF793FE10B9641C7F1C01E000BFA3
:103FB000FEE74C45F3D3FDF731FC08E00648006806
:103FC000083005490860681C85B24545B6DB00BF6E
:103FD000BDE8F087004000088000002025E0CDAB60
:103FE0007800002010B50248FEF7EEF910BD000081
:103FF00098D90120704701460020704700BFFEE7B6
:1040000000000000000000000000000000000000B0
:1040100000000000000000000000000000000000A0
:104020000000000000000000000000000000000090
:104030000000000000000000000000000000000080
:1080000070B504460D461646204609F08DFD002049
:1080100070BD70B504460D461646204604F010FBB0
:10802000204604F0C3FA002070BD70B504460D462A
:108030001646204604F0A2FD204604F059FD00201B
:1080400070BD30B503460C46D3F80C02007860B919
:10805000002106E00020D3F8105245F82100481C0A
:10806000C1B293F809028842F4DC002030BD000060
:108070002DE9F04704460D4626683746D6F840807D
:1080800007F5306000EB4510D0F8089010488045A7
:108090000BD909F40040B0F5004F06D14FF4004170
:1080A00007F5306000EB451081602046FAF77FFD50
:1080B0000748804508D92069012805D104F5717267
:1080C0000121206802F0D2FA0020BDE8F08700000C
:1080D0000A30544F2DE9F04705460C46D5F800808C
:1080E0004646D8F8409006F5306000EB44108768AB
:1080F0002869012873D107F0080008280FD15248D9
:1081000081450BD907F40040B0F5004F06D14FF47C
:10811000004106F5306000EB4410816091E007F00B
:108120002000202806D1202106F5306000EB441005
:10813000816086E007F0280000280ED14248814582
:108140000CD907F40040B0F5004F07D14FF40041BF
:1081500006F5306000EB4410816072E0C4EBC401AE
:1081600005F5FE7000EB8100816806F5306000EBDC
:1081700044100069C0F31200091AC4EBC40205F5EB
:10818000FE7000EB82008161C4EBC40105F5FE7056
:1081900000EB8100C4EBC402C16805F5FE7000EB82
:1081A000820080680144C4EBC40205F5FE7000EB58
:1081B0008200C1606CB9C4EBC40105F5FE7000EB30
:1081C0008100406928B905F571720121286802F023
:1081D0004DFAE1B22846F9F77EFF32E0FFE71B488F
:1081E00081451BD107F40040B0F5004F07D14FF493
:1081F000004106F5306000EB4410816021E007F09B
:108200002000202805D1202106F5306000EB441025
:108210008160E1B22846F9F75EFF12E06CB9C4EB69
:10822000C40105F5FE7000EB8100406928B905F531
:1082300071720021286802F019FAE1B22846F9F7B4
:108240004AFF0020BDE8F0870A30544F0A31544FEE
:108250002DE9F84F07460E46D7F80090C846C6EB02
:10826000C60107F13C0000EB8104D4E90510884207
:1082700002D90120BDE8F88FD4E90501451AA068AC
:10828000A84200D2A568E81C4FEA900A17E0D4E99A
:108290000501451AA068A84200D2A568E81C4FEA6B
:1082A000900A387CABB2F2B200904846E16802F026
:1082B000CFFDE0682844E060A0692844A06108F58B
:1082C000106000EB4610806980B2504506D3D4E9B7
:1082D0000510884202D260690028D8D1D4E905018E
:1082E00088420ED806F00F01012000FA01FB40F68B
:1082F000340050F8080020EA0B0040F6340141F841
:1083000008000020B6E770B505460C464FF0FF3078
:1083100004EB4402A96801EBC2014880002004EB91
:108320004402A96801EBC2018860E1B2284609F065
:108330000BF870BD70B505460C464FF0FF3004EBEE
:108340004402A96801EBC201888004EB4401A868DB
:1083500010F8310020F0010004EB4402A96801F894
:108360003200E1B2284608F0EFFF70BD2DE9FC4174
:1083700004464FF4C05660690569A0690769B5B144
:1083800013E06B4601AA3146204608F0CEFF019863
:1083900040B9009830B10948009988600099C860D8
:1083A00000994861761C6D1C00BFBD42E9D90021CF
:1083B000204603F0E7FBBDE8FC810000CD8A000801
:1083C0002DE9F0410446002560690669A069076946
:1083D0007EB32CE005EB4502A16801EBC201B1F9C7
:1083E0000200F8F7B5FB05EB4502A16801EBC201FD
:1083F000488005EB4502A16801EBC201B1F9040018
:10840000F8F7A6FB05EB4502A16801EBC2018880E5
:10841000002005EB4502A16801F8320005EB45029A
:10842000A16801EBC2018860681CC5B2761CBE421F
:10843000D0D9BDE8F0817FB504460E46D4F8A80037
:108440000068A0B12068007800F5E0650095012083
:108450008DF8050000208DF8040094F87C008DF85C
:1084600006006946D4F8E40103F008FF05E0B4F91A
:10847000AC00F8F76DFBA4F8AC007FBD10B54FF46D
:10848000805100200D4A0E4B1A6000BF12E00C4ACA
:10849000126812680B4B9A4205D10B4A084B1C68B4
:1084A00018CC18C208E0064A12680832044B1A6059
:1084B000421C90B28842EADB00BF10BD00400008B9
:1084C0008000002025E0CDAB780000202DE9FC41A4
:1084D00006460F4614461D466B4601AA39463046ED
:1084E00008F023FF8046019840B9009830B198F811
:1084F0000400A04202DD009840F824500198BDE835
:10850000FC8100002DE9FC4104460D466069466887
:1085100066B1C5EBC50000EB400104F1280010F87E
:1085200021003044A1694968884201D9BDE8FC8135
:10853000C5EBC50000EB400204F1280010F8220052
:10854000304400EB4000616851F82000C06A0778B1
:10855000002000903CA341F6012245A10190062095
:1085600004F09CFB4FF0FF31C5EBC50000EB40026F
:1085700004F1280000EB8200A0F84E108521C5EB25
:10858000C50000EB400204F1280000EB820081707E
:108590003C49C5EBC50000EB400204F1280000EBAC
:1085A0008200007BCDE90001C5EBC50000EB400C6B
:1085B00004F1280000EB8C008368C5EBC50000EBDC
:1085C000400C04F1280010F82C20C5EBC50000EB8E
:1085D000400C04F1280000EB8C004178204609F0A3
:1085E0002DF82849C5EBC50000EB400204F1280036
:1085F00000EB82004160C5EBC50000EB400104F1D7
:10860000280000EB8100006D58B1C5EBC50000EB00
:10861000400104F1280000EB81003946026D20463C
:108620009047C5EBC50000EB400104F1280000EBCA
:10863000810040681349884203D1E9B2204608F01E
:1086400044FE00BF72E7000053444F2074696D651B
:108650006F75742E2053444F20726573706F6E7364
:1086600065206E6F742072656365697665642E009F
:1086700045722025780925732030782558282575DE
:10868000290A0D00000004052DE9FF4104460D46AE
:10869000C5EBC50000EB400104F1280000EB8100B0
:1086A000006988B9C5EBC50000EB400104F1280062
:1086B00000EB81004169C5EBC50000EB400204F10D
:1086C000280000EB82000161C5EBC50000EB400112
:1086D00004F1280000EB810000690390012003AA47
:1086E000CDE900200290C5EBC50000EB400704F186
:1086F000280000EB870000F11803C5EBC50000EB74
:10870000400704F1280000EB8700027BC5EBC500A1
:1087100000EB400704F1280000EB87008168204649
:1087200003F04CFB06461EB1304604B0BDE8F081B4
:108730000020FAE72DE9FC4704460D461646984608
:10874000C5EBC50000EB400104F1280000EB8100FF
:108750004069304420280BD900961FA341F615220A
:108760002CA10620019604F099FAFF20BDE8FC87B1
:10877000C5EBC50000EB400104F1280000EB8100CF
:10878000D0F8149000270FE018F80710C5EBC500CB
:1087900000EB400204F1280000EB8200183009EBE6
:1087A00007028154781CC7B2B742EDD3C5EBC500B0
:1087B00000EB400104F1280000EB810040698119C1
:1087C000C5EBC50000EB400204F1280000EB82007D
:1087D00041610020CAE7000053444F2053697A6585
:1087E000206F66206461746120746F6F206C617209
:1087F00067652E204578636565642053444F5F4D5F
:1088000041585F4C454E4754485F5452414E534681
:1088100045520000457220257809257320307825BF
:1088200058282575290A0D002DE9F05F82468B46F0
:10883000914698460026274C40E0B9F1000F3AD007
:108840002078B8BB2448B0F90000401C864205D10E
:1088500021480088401C00B21F49088003F0E6FD53
:10886000054647464FF6FF70874201D2384601E081
:108870004FF6FF70074619480068A8420AD9174802
:108880000068401BB84205D9E81914490860384609
:1088900009F022F9C4F80890C4F804A0C4F80CB098
:1088A00008EB050020610A986061012020703046C5
:1088B000BDE8F09FFFE7701C06B218340648B0F917
:1088C0000000401C864201DC082EB6DB4FF0FF3072
:1088D000EEE7000018E20120ECC10120E8C1012010
:1088E000FBF7F4FA00BF012004F098F9FBE7000061
:1088F00010B510200549086020200860402008605D
:1089000080200860F8F744F910BD00000C3C0240DC
:1089100070B504460D46204608F0B9FE70BD000053
:1089200010B500BF502080F31188BFF34F8FBFF305
:108930006F8F00BF09F0B0FD18B14FF080500449AF
:10894000086000BF002080F3118800BF10BD000048
:1089500004ED00E000B591B0302105A8F7F7D3FC95
:1089600014216846F7F7CFFC0220059001200890FB
:108970001020099002200B9000210C910D210D91E7
:10898000C3210E9102210F910521109105A8FAF73C
:10899000BDFA08B1F8F7F8F80F2000900220019016
:1089A000002002904FF4A05003904FF480500490A8
:1089B00003216846FAF738F908B1F8F7E5F811B07D
:1089C00000BD000010B50248FAF7ADFD10BD000073
:1089D000C0DD012010B5054800680549884201D175
:1089E00009F0B4F90148FAF79EFD10BD14420020C9
:1089F0000010004010B50268294B98420ED0B0F12B
:108A0000804F0BD0274B984208D0274B984205D077
:108A1000264B984202D0264B984203D122F0700296
:108A20004B681A431E4B984220D0B0F1804F1DD0A6
:108A30001C4B98421AD01C4B984217D01B4B9842A3
:108A400014D01B4B984211D01A4B98420ED01A4B9F
:108A500098420BD0194B984208D0194B984205D038
:108A6000184B984202D0184B984203D122F440721E
:108A7000CB681A4322F080034C6943EA0402026087
:108A80008B68C3620B688362054B984202D0084B27
:108A9000984201D10B6903630123436110BD0000BB
:108AA000000001400004004000080040000C0040AD
:108AB00000040140004001400044014000480140E2
:108AC00000180040001C0040002000402DE9F0414B
:108AD00004460E4617468220005DE0B3022F04D004
:108AE000032F03D0052F3CD101E000BF00BF616917
:108AF0006068096901EB410100EB8108A6EB080001
:108B00000C2190FBF1F0C5B205EB4502A16801EB29
:108B1000C201B1F90200F8F71BF805EB4502A168A4
:108B200001EBC201488005EB4502A16801EBC201DF
:108B3000B1F90400F8F70CF805EB4502A16801EB68
:108B4000C2018880002005EB4502A16801F83200CF
:108B50002946204600E006E0FFF7D5FB0020BDE8EF
:108B6000F08100BF00BF0020F9E700002DE9F041CF
:108B70004FF6FF7603F05AFC07462948006800EBE1
:108B800007080025274C25E0207800F00100F0B10F
:108B90002069404513D8606910B90220207016E0A2
:108BA0006069B7FBF0F100FB11706169081A206180
:108BB000032020702069B04209D2266907E02069AD
:108BC000A0EB080020612069B04200D22669681C31
:108BD00005B218341448B0F900008542D4DD1048BD
:108BE0000660304608F078FF00250E4C10E0207833
:108BF00000F0020048B1207820F002002070A06848
:108C000018B1D4E9022160689047681C05B2183495
:108C10000548B0F900008542E9DDBDE8F0810000BB
:108C2000E8C1012018E20120ECC101202DE9F0414A
:108C300004460D46D4F8B862D4F8C072D4F8B8022D
:108C400078B305EB850104F1140000EB8100806826
:108C500008B305EB850104F1140000EB8100C5EBBE
:108C6000C502816807F13C0000EB82008068B1FB1F
:108C7000F0F200FB121070B9002105EB850204F13F
:108C8000140000EB8200816000231A46294620462A
:108C900000F0B6FE02E00020C6F814020020BDE895
:108CA000F081FFE70220FAE770B504460E46D4F8DB
:108CB000B8523146204600F04CFDC5F80C02D4F8FD
:108CC000B80248B1D5F80402D4F8BC12CA6805F558
:108CD00003719047002070BD0220FCE770B5044688
:108CE0000E4600258121204600F040FC0021E16273
:108CF0000121204600F03AFC0021C4F86C118221C9
:108D0000204600F033FC00212164D4F8B80250B1B1
:108D1000D4F8BC1248688047D4F8B80203F05EFB70
:108D20000020C4F8B802284670BD70B50546D5F8D5
:108D3000B842D5F8BC0278B194F80002FF280BD0F5
:108D400094F8012294F80002D5F8BC128B682146F1
:108D50009847FF2084F80002002070BD01460A20D9
:108D6000088001487047000064C00120014643208C
:108D70000880014870470000ECC0012001464320F4
:108D80000880014870470000A8C001200146432028
:108D9000088001487047000030C101202DE9F041F2
:108DA00004460F460026207C88B94FF40073022247
:108DB0008121204600F030FD0121E1624B020222B8
:108DC000204600F029FD0121C4F86C110FE040237A
:108DD00002228121204600F01FFD0121E162402393
:108DE0000222204600F018FD0121C4F86C1108236E
:108DF00003228221204600F00FFD012121644FF45F
:108E0000077003F015FEC4F8B802D4F8B80208B928
:108E100001261CE0D4F8B852D4F8BC120868804788
:108E20000020C5F81402C5F81802207C40B94FF4A0
:108E3000007301212046D5F8042200F005FD06E06C
:108E4000402301212046D5F8042200F0FDFC3046E5
:108E5000BDE8F08170B50446D4F8B852D4F8B80231
:108E600098B1207C40B94FF4007301212046D5F819
:108E7000042200F0E9FC06E0402301212046D5F859
:108E8000042200F0E1FC002070BD0220FCE7024655
:108E9000022011B1C2F8BC12002070470246D2F87D
:108EA000B832C3F804120020704710B50346D3F857
:108EB000B842C4F80812C4F81022002010BD2DE9F1
:108EC000FC4105460C46D5F8B862002001900090A0
:108ED0000027207800F0600040B320285FD1E088B0
:108EE000E0B1207800F0800060B1E2886078D5F8C9
:108EF000BC128B6831469847E2883146284600F01C
:108F0000C7F812E0607886F80002A07986F80102BE
:108F1000E2883146284600F09AF806E06078D5F8F5
:108F2000BC1200228B68214698473EE0607820B151
:108F30000A2812D00B282AD11FE095F89C0203289A
:108F400005D102226946284600F0A2F804E0214635
:108F5000284600F070F802271FE095F89C020328CD
:108F600005D1012201A9284600F092F804E021462B
:108F7000284600F060F802270FE095F89C020328CD
:108F800004D02146284600F056F8022705E0214685
:108F9000284600F050F8022700BF00BF05E0214638
:108FA000284600F048F8022700BF00BF3846BDE859
:108FB000FC8170B504460D46D4F8B40229464268D7
:108FC00020469047002070BD70B504460D4694F8C9
:108FD0009C02012804D0022803D003280CD101E010
:108FE00000BF00BF6888012805D10020C4F8A40292
:108FF000204600F05EF804E02946204600F01BF809
:1090000000BF00BF70BD70B506460C4615462B4626
:1090100022460021304600F017FC002070BD70B5DC
:1090200006460C4615462B4622460021304600F0E7
:10903000E7FC002070BD70B504460D468021204637
:1090400000F0B2FC0021204600F0AEFC70BD70B50F
:1090500004460E4615460320C4F894024FF4AE7041
:109060000551001D05512B4632460021204600F0D7
:10907000EBFB002070BD10B504460520C4F8940237
:1090800000231A461946204600F0DEFB002010BDE2
:1090900070B504460E4615460220C4F89402E561F8
:1090A00025622B4632460021204600F0A9FC002014
:1090B00070BD10B504460420C4F8940200231A467B
:1090C0001946204600F09CFC002010BD70B50446F7
:1090D0000D46E888012804D029462046FFF7ABFF5B
:1090E0001EE094F89C02012804D0022803D0032833
:1090F00010D109E000BF0020A060012204F10801A6
:109100002046FFF7C5FF0AE00122211D2046FFF798
:10911000BFFF04E029462046FFF78DFF00BF00BFD8
:1091200070BDF8B504460E460020009000270025CB
:1091300070880012082875D2DFE800F0C7040C2000
:10914000C7C7A5B5207CD4F8B0120A686946904715
:109150000746C1E0207C40B9D4F8B402816A684671
:10916000884707460220787007E0D4F8B402C16A45
:1091700068468847074602207870ADE0B078062838
:1091800078D2DFE800F00316293C5063D4F8B0022F
:10919000406838B1207CD4F8B0124A6869469047DC
:1091A000074605E031462046FFF745FF681CC5B27B
:1091B00067E0D4F8B002806838B1207CD4F8B012EF
:1091C0008A6869469047074605E031462046FFF722
:1091D00032FF681CC5B254E0D4F8B002C06838B1A0
:1091E000207CD4F8B012CA6869469047074605E06B
:1091F00031462046FFF71FFF681CC5B241E0D4F896
:10920000B002006938B1207CD4F8B0120A6969460E
:109210009047074605E031462046FFF70CFF681CE3
:10922000C5B22EE051E0D4F8B002406938B1207CDC
:10923000D4F8B0124A6969469047074605E03146BE
:109240002046FFF7F8FE681CC5B21AE0D4F8B00259
:10925000806940B1207CD4F8B0128A696946904791
:10926000074606E006E031462046FFF7E4FE681CAC
:10927000C5B206E031462046FFF7DDFE681CC5B2E8
:1092800000BF00BF28E0207C30B9D4F8B402416BA5
:1092900068468847074605E031462046FFF7CBFE83
:1092A000681CC5B218E0207C40B9D4F8B402016B48
:1092B0006846884707460720787005E03146204613
:1092C000FFF7B9FE681CC5B206E031462046FFF73D
:1092D000B2FE681CC5B200BF00BF05B1F8BDBDF845
:1092E000000088B1F08878B1F088BDF8001088429D
:1092F00002DDBDF8000000E0F0880090BDF800201D
:1093000039462046FFF7C4FEF08810B92046FFF723
:10931000D0FE00BFE2E70146002002E0421CD0B2CE
:10932000491C0A78002AF9D1704770B504460D46E9
:1093300094F89C02012804D0022803D003281AD1F3
:1093400001E000BF00BFE888022804D0294620467B
:10935000FFF771FE14E00120E060D4F8A40218B118
:10936000E06840F00200E060022204F10C012046B7
:10937000FFF78EFE04E029462046FFF75CFE00BFA3
:1093800000BF70BD2DE9F04104460D46174600268A
:10939000FCB12046FFF7BFFF022101EB40003880FF
:1093A0003A783046711CCEB22A5403223046711CE2
:1093B000CEB22A540AE014F8012B3046711CCEB20A
:1093C0002A5400223046711CCEB22A54207800283C
:1093D000F1D1BDE8F0810146002031B1012906D06C
:1093E000022906D0032908D105E0002007E0022069
:1093F00005E0012003E0022001E0022000BF00BFE1
:109400007047000070B505460C462DB92246064946
:1094100006A0FFF7B7FF04E02246034903A0FFF7C9
:10942000B1FF014870BD000098CC012043444320A7
:10943000436F6E666967000002461220088001488B
:10944000704700001C00002070B505460C462DB981
:109450002246064906A0FFF795FF04E0224603498D
:1094600003A0FFF78FFF014870BD000098CC0120DA
:1094700043444320496E7465726661636500000071
:109480000246042008800148704700003000002098
:1094900070B505460C462246024903A0FFF772FF4D
:1094A000004870BD98CC012053544D6963726F65BC
:1094B0006C656374726F6E696373000070B5054606
:1094C0000C462DB92246064906A0FFF75BFF04E0D3
:1094D0002246034903A0FFF755FF014870BD000075
:1094E00098CC012053544D33322056697274756103
:1094F0006C20436F6D506F727400000070B50546AC
:109500000C461A202080F7F787FC014870BD000048
:109510003400002070B504460D4616460CB90220F2
:1095200070BDD4F8B40210B10020C4F8B4020DB17B
:10953000C4F8B052012084F89C022670204600F046
:1095400011F90020ECE72DE9F04104460D46002614
:1095500000272946D4F8C002F8F709FE064630462F
:10956000FFF739FF07463846BDE8F0812DE9F041A5
:1095700004460D46002600272946D4F8C002F8F715
:10958000C1FD06463046FFF726FF07463846BDE8D0
:10959000F0812DE9F04104460E461746002E64D1B5
:1095A00004F11405D4F89402022848D1D5E9030146
:1095B000884210D9D5E90301401AE860A88982B22F
:1095C00039462046FFF72BFD00231A461946204650
:1095D00000F03AF93EE02969A868B0FBF1F201FB1E
:1095E0001200B8B92969A868884213D3A868D4F8CA
:1095F000981288420ED2002211462046FFF70FFD36
:109600000020C4F8980200231A461946204600F0AC
:109610001BF91FE0D4F8B402C06840B194F89C0272
:10962000032804D1D4F8B402C168204688478021B9
:10963000204600F0B9F92046FFF71DFD0AE0D4F8F6
:109640009402042802D0D4F8940218B9802120464C
:1096500000F0AAF994F8A002012818D1204600F0E1
:1096600003FA002084F8A00211E0D4F8B4024069A3
:1096700050B194F89C02032806D1D4F8B4023146C4
:1096800042692046904702E00220BDE8F0810020B8
:10969000FBE72DE9F04104460E461746BEBB04F534
:1096A000AA75D4F89402032825D1D5E9030188428C
:1096B00010D9D5E90301401AE860D5E903018842D1
:1096C00001D2E86800E0286982B239462046FFF7F7
:1096D0009AFC2FE0D4F8B402006940B194F89C02DF
:1096E000032804D1D4F8B4020169204688472046F3
:1096F000FFF7DFFC1EE0D4F8940205281AD1002001
:10970000C4F894020021204600F04EF912E0FFE771
:10971000D4F8B402806950B194F89C02032806D1B1
:10972000D4F8B402314682692046904702E0022014
:10973000BDE8F0810020FBE710B50446012084F865
:109740009C022179D4F8B402426820469047002058
:1097500010BD70B504460D462946D4F8C002F8F78E
:1097600044FD70BD10B50446207801282BD1174860
:10977000C0F8FC43C4F8C00215481449086006202C
:10978000486002211148C16000210161022181610C
:109790000021C1610162C16201634163F9F7C8F848
:1097A00008B1F7F7F1F94FF400710848F8F750FCE9
:1097B000802200210548F8F750FC4FF4BA720121CD
:1097C0000248F8F74AFC002010BD000098D901209B
:1097D0000000044010B50246D2F8C03201F080000B
:1097E000802809D101F07F00C0EBC00403F13C00E8
:1097F00000EB8400807810BD01F07F00C0EBC00456
:1098000003F5FE7000EB84008078F4E70246002048
:1098100070470246002070472DE9F04704460F4686
:1098200015461E464FF00008C1462B4632463946C3
:10983000D4F8C002F8F7E4FC80464046FFF7CBFDC1
:1098400081464846BDE8F0872DE9F04704460D46BD
:1098500016461F464FF00008C1463B463246294691
:10986000D4F8C002F8F712FD80464046FFF7B3FD7A
:1098700081464846BDE8F08710B5044640230022E3
:1098800011462046FFF7C8FF01214FF4AC7001518B
:1098900040214FF4B2700151402300228021204624
:1098A000FFF7BAFF0121A16140216162012084F824
:1098B0009C020020C4F894026060C4F8A402D4F8AA
:1098C000B80228B12179D4F8B40242682046904702
:1098D000002010BD014691F89C02042803D191F8A4
:1098E0009D0281F89C020020704710B5044694F850
:1098F0009C02032808D1D4F8B402C06920B1D4F87E
:10990000B402C16920468847002010BD0246117488
:10991000002070472DE9F04104460D46002600273F
:109920002946D4F8C002F9F727F906463046FFF772
:1099300052FD07463846BDE8F08170B504460D4635
:10994000294604F52A7000F073F80120C4F8940247
:1099500040F2AE20005BC4F8980294F8A80200F030
:109960001F0020B1012808D0022812D10BE004F515
:109970002A71204600F041F913E004F52A712046CF
:1099800000F0A8FA0DE004F52A71204600F086F9EF
:1099900007E094F8A80200F08001204600F004F8E7
:1099A00000BF00BF002070BD2DE9F04104460D4608
:1099B000002600272946D4F8C002F8F793FC064693
:1099C0003046FFF708FD07463846BDE8F08170B520
:1099D000044600250026D4F8C002F9F7F1F8054640
:1099E0002846FFF7F8FC0646304670BD014691F860
:1099F0009C0281F89D02042081F89C02002070479F
:109A00002DE9F04704460D4616461F464FF0000864
:109A1000C1463B4632462946D4F8C002F8F7A7FCB7
:109A200080464046FFF7D7FC81464846BDE8F087B0
:109A30000A7802704A7842708B78CA7803EB022267
:109A400042800B794A7903EB022282808B79CA79B2
:109A500003EB0222C28070470246002011B1C2F817
:109A6000B41200E00220704701460020704770B534
:109A700004460D46A88810BBE88800BB688880288B
:109A80001DD2A87800F07F0694F89C02032804D128
:109A900029462046FFF7CFFA15E084F89E6231464A
